:020000040800F2
:1000000000100020ED11000835110008371100081C
:1000100000000000000000000000000000000000E0
:10002000000000000000000000000000391100087E
:1000300000000000000000003B1100083D11000816
:100040003D120008000000003D1200083D120008AB
:100050003D1200083D1200083D1200083D12000844
:10006000000000003D1200083D1200083D1200088B
:100070003D1200083D1200083D120008000000007B
:100080003D12000800000000000000003D120008C2
:10009000000000003D1200083D1200083D1200085B
:1000A000000000003D120008000000003D120008A2
:1000B0000000000000000000000000000000000040
:1000C00010B5064C2378002B07D1054B002B02D02E
:1000D000044800E000BF0123237010BD3C04002051
:1000E0000000000030140008044B10B5002B03D0B2
:1000F0000349044800E000BF10BDC04600000000F6
:100100004004002030140008002243088B4274D3BE
:1001100003098B425FD3030A8B4244D3030B8B4208
:1001200028D3030C8B420DD3FF22090212BA030C11
:100130008B4202D31212090265D0030B8B4219D3F2
:1001400000E0090AC30B8B4201D3CB03C01A524112
:10015000830B8B4201D38B03C01A5241430B8B425A
:1001600001D34B03C01A5241030B8B4201D30B0343
:10017000C01A5241C30A8B4201D3CB02C01A52416A
:10018000830A8B4201D38B02C01A5241430A8B422D
:1001900001D34B02C01A5241030A8B4201D30B0216
:1001A000C01A5241CDD2C3098B4201D3CB01C01A30
:1001B000524183098B4201D38B01C01A524143093A
:1001C0008B4201D34B01C01A524103098B4201D328
:1001D0000B01C01A5241C3088B4201D3CB00C01A95
:1001E000524183088B4201D38B00C01A524143080D
:1001F0008B4201D34B00C01A5241411A00D2014632
:10020000524110467047FFE701B5002000F006F8A4
:1002100002BDC0460029F7D076E770477047C04658
:1002200010B504000F4B1978FA208000FFF76CFF1F
:1002300001000D4B1868FFF767FF00F06BF800280E
:100240000DD1032C01D901200AE001300022210048
:10025000404200F02FF8054B1C60002000E0012018
:1002600010BDC0460000002008000020040000204F
:1002700010B5064A136810210B4313600320FFF7E3
:10028000CFFF00F03FFF002010BDC046002002401D
:10029000034A1168034B1B785B1813607047C04614
:1002A0005804002000000020014B18687047C04629
:1002B0005804002070B5002811DB8308134EC033AA
:1002C0009B009D5903242040C000FF22140084405D
:1002D000A54389010A4082402A439A5170BD0F23E9
:1002E0000340083B9B0806339B00094A944663443D
:1002F0005C6803221040C000FC3215008540AC430E
:1003000089010A40824022435A60E7E700E100E0A9
:1003100000ED00E0013880235B0498420FD2094AC7
:1003200050600948036A1B021B0AC02109060B43DF
:10033000036200239360073313600020704701209D
:10034000FCE7C04610E000E000ED00E0F0B583B04F
:10035000002357E084685F000326BE40B4432600B4
:10036000CC68BC4034438460446894434A681609AE
:10037000012232409A402243426053E0DC080834B4
:10038000A400265805321A4092000F279740BE431A
:100390000F6997403A003243225057E0032600E0AD
:1003A0000026A64034003C4302329200444E945151
:1003B000444A1468EA432600AE434F68FF0301D560
:1003C0002C4326003F4C26606468260016404F6888
:1003D000BF0301D52C4326003A4C6660A468260072
:1003E00016404F68FF0201D52C432600354CA6600D
:1003F000E46822404E68B60201D52A002243314CFF
:10040000E26001330C682200DA4057D001229A40A2
:10041000250015401442F4D003244E683440013CBA
:10042000012C97D903224C682240032A09D0C268C4
:100430005E000324B440A24314008A68B240224301
:10044000C26003224C682240022A97D004685E00F2
:1004500003221700B740BC434F683A40B2402243E2
:100460000260C02292024C681442CAD0164CA6699F
:1004700001221643A661A46922400192019A9A08BA
:10048000941CA4000E4EA75903241C40A4000F2660
:10049000A640B7439026F605B04281D00B4EB0423D
:1004A00008D00B4EB04207D00A4EB04200D175E7DB
:1004B000052676E7012674E7022672E703B0F0BD51
:1004C0000000014000040140001002400004004808
:1004D00000080048000C004870B582B0041E00D12E
:1004E0002EE20368DB0726D5AE4B5A680C23134077
:1004F000042B18D0AB4B5A680C231340082B0ED09A
:100500006368012B3CD0002B51D1A64B1A68A64939
:100510000A401A601A68A5490A401A6036E0A14BE1
:100520005B68DB03ECD59F4B1B689B0303D56368BB
:10053000002B00D107E223689B0772D5994B5B68BB
:100540000C221A425DD0974B5A680C231340082B9B
:1005500053D0E368002B00D185E0924A1368012153
:100560000B431360FFF7A0FE05008E4B1B689B0733
:1005700070D4FFF799FE401B0228F6D90320E0E172
:10058000884A116880235B020B4313606368002B69
:1005900025D0FFF789FE0500824B1B689B03CAD458
:1005A000FFF782FE401B6428F6D90320C9E1052B22
:1005B00009D07C4B1A687C490A401A601A687B494A
:1005C0000A401A60E2E7774B19688022D2020A4398
:1005D0001A601968802252020A431A60D6E7FFF7B0
:1005E00063FE05006F4B1B689B03A4D5FFF75CFE01
:1005F000401B6428F6D90320A3E16A4B5B68DB0348
:10060000A7D4684B1B689B0703D5E368012B00D078
:100610009BE164490B68F82293432269D20013439B
:100620000B6023681B0744D5E369002B2ED05D4A7D
:10063000536A01210B435362FFF736FE0500594B05
:100640005B6A9B0735D4FFF72FFE401B0228F6D9C3
:10065000032076E153490B68F82293432269D200C4
:1006600013430B60DDE74F4A136801218B4313608E
:10067000FFF71AFE05004B4B1B689B07D1D5FFF710
:1006800013FE401B0228F6D903205AE1454A536A5B
:1006900001218B435362FFF707FE0500414B5B6A64
:1006A0009B0706D5FFF700FE401B0228F6D9032062
:1006B00047E123685B0700D480E03A4BDB69DB004D
:1006C0001DD4384AD169802040050143D161D369E6
:1006D00003400193019B0125354B1B68DB0510D5B9
:1006E000A368012B21D0002B36D12E4B1A6A012191
:1006F0008A431A621A6A03318A431A621AE0002591
:10070000EAE72B4A116880235B000B431360FFF775
:10071000CBFD0600264B1B68DB05E1D4FFF7C4FDCB
:10072000801B6428F6D903200BE11E4A136A0121BD
:100730000B431362A368002B24D0FFF7B5FD06001E
:10074000184B1B6A9B0737D4FFF7AEFD801B194B74
:100750009842F5D90320F4E0052B09D0114B1A6A11
:1007600001218A431A621A6A03318A431A62E1E755
:100770000C4B1A6A04210A431A621A6A03390A43A3
:100780001A62D7E7FFF790FD0600064B1B6A9B072E
:1007900012D5FFF789FD801B064B9842F5D903203F
:1007A000CFE0C04600100240FFFFFEFFFFFFFBFF4F
:1007B0000070004088130000012D33D02368DB0651
:1007C00010D56369012B33D0053351D1654A536B82
:1007D00004218B435363536BF4318B43A169C900EC
:1007E0000B435363236A002B00D1B0E05D4A51688C
:1007F0000C220A40082A00D18AE0022B4FD0594A25
:10080000136859490B401360FFF74EFD0400554B28
:100810001B689B017AD5FFF747FD001B0228F6D91C
:1008200003208EE04F4AD36950490B40D361C5E79E
:100830004C4B5A6B04210A435A635A6B03390A43DF
:100840005A63FFF731FD0500464B5B6B9B0706D4EF
:10085000FFF72AFD401B0228F6D9032071E0414929
:100860004B6BF8229343A269D20013434B63B9E761
:100870003C4B5A6B04210A435A635A6B03398A432F
:100880005A63FFF711FD0500364B5B6B9B07A9D53B
:10089000FFF70AFD401B0228F6D9032051E0314A38
:1008A000136831490B401360FFF7FEFC05002D4B28
:1008B0001B689B0106D5FFF7F7FC401B0228F6D901
:1008C00003203EE0274BDA6A0F218A43E16A0A439C
:1008D000DA625A6826490A40A16A606A01430A43FB
:1008E0005A601968802252040A431A60FFF7DCFC40
:1008F00004001C4B1B689B0106D4FFF7D5FC001BB2
:100900000228F6D903201CE000201AE0002018E09D
:10091000012B1ED0134B5A68D96A80235B02134007
:10092000606A834217D10F230B40E16A8B4214D1D6
:10093000F0239B031A40A36A9A4210D1002000E0E2
:10094000012002B070BD0120FBE70120F9E7002083
:10095000F7E70120F5E70120F3E70120F1E70120A7
:10096000EFE7C04600100240FFFFFFFEFFFFFFEF72
:10097000FFFFC2FF10B588B004AA164B13CB13C2F9
:100980001B6813606A46144B13CB13C21B681360B9
:10099000124B5A680C231340082B02D0104808B0A1
:1009A00010BD910C0733194004A8445C0B49C96A77
:1009B0000B406946C95CD30304D50948FFF7A4FB83
:1009C0006043ECE763011B1B9801C01AC0000019CB
:1009D0000002E4E7481400085C140008001002401C
:1009E00000127A0070B504000D00002800D17EE0EE
:1009F000434B1A68012313408B420AD240490B68CB
:100A0000012293432B430B600B681A40AA4200D08B
:100A10006FE023689A070ED55B0705D5394A516800
:100A2000E023DB000B435360364A5368F0218B43CD
:100A3000A1680B4353602368DB072DD56368012B46
:100A40001ED0022B22D02F4A1268920753D52D496F
:100A50004A680320824313434B60FFF725FC0600DE
:100A6000284B5B680C221A4063689B009A4213D0A3
:100A7000FFF71AFC801B244B9842F1D9032035E084
:100A8000204A12689203E2D401202FE01D4A126826
:100A90009201DCD4012029E0194B1A68012313408C
:100AA000AB4209D916490B68012293432B430B60D3
:100AB0000B681A40AA4220D123685B0706D5114A69
:100AC000536812490B40E1680B435360FFF752FF34
:100AD0000C4B5A6812090F2313400D4AD35CD840BF
:100AE0000C4B18600320FFF79BFB002070BD01201A
:100AF000FCE70120FAE70120F8E70120F6E7C0460D
:100B0000002002400010024088130000FFF8FFFFA1
:100B10007014000808000020014B18687047C04698
:100B20000800002010B5FFF7F7FF044B5A68120ABF
:100B300007231340024AD35CD84010BD0010024086
:100B40008014000870B582B004000368DB0337D559
:100B50003D4BDB69DB0049D43B4AD169802040052D
:100B60000143D161D36903400193019B0125374BB8
:100B70001B68DB053CD5344B1A6AC0239B0011006F
:100B800019401A4213D0626813408B420FD02E4B8B
:100B9000186A2F4A02401E6A8021490231431962B5
:100BA000196A2C4E314019621A62C30734D4264A9E
:100BB000136A27490B4061680B431362012D3AD039
:100BC0002368DB0706D5204A136B03218B43A168FA
:100BD0000B43136323689B0632D51B4A136B10210A
:100BE0008B43E1680B43136300202AE00025BEE736
:100BF000164A116880235B000B431360FFF754FB18
:100C00000600124B1B68DB05B5D4FFF74DFB801BBC
:100C10006428F6D9032014E0FFF746FB06000A4BD0
:100C20001B6A9B07C3D4FFF73FFB801B0A4B98420C
:100C3000F5D9032005E0D36908490B40D361BFE72C
:100C4000002002B070BDC04600100240007000409D
:100C5000FFFCFFFFFFFFFEFF88130000FFFFFFEF19
:100C600010B5040083680269134342691343C269E3
:100C7000134301680A684A48024013430B60226824
:100C8000536848490B40E1680B435360226AA369EB
:100C90001A4321688B684448034013438B60434BDD
:100CA0001A6B03231340022B27D022D8002B26D007
:100CB000012B26D10333E06980221202904224D016
:100CC000042B65D054D8002B5CD0022B4ED1384871
:100CD00063685B0818186168FFF716FA0004000CD7
:100CE0000200103A334B9A4257D82368D86000204C
:100CF00044E0032B07D1013BDDE70823DBE70023BA
:100D0000D9E71023D7E71023D5E7042B2BD020D821
:100D1000002B22D0022B1AD12548400063685B08C3
:100D2000C0186168FFF7F0F983B20004000C0100FD
:100D30001039204A91422ED80F2293431A004008BE
:100D40000723184010432368D860002016E00120D4
:100D500014E0082BE1D0012010E0FFF7E3FE0028AB
:100D6000DBD100200AE0FFF705FEF8E7012005E0EF
:100D7000082B02D180200002AAE70120002363662D
:100D8000A36610BDFFF7CEFE0028A1D10020F5E735
:100D9000FFF7F0FDF8E70120F0E70120EEE7C0469D
:100DA000F369FFFFFFCFFFFFFFF4FFFF00100240DA
:100DB00000127A00EFFF0000436ADB0706D50268E5
:100DC00053682C490B40816A0B435360436A9B076D
:100DD00006D50268536828490B40C16A0B4353602B
:100DE000436A5B0706D50268536824490B40016BD0
:100DF0000B435360436A1B0706D5026853682049BA
:100E00000B40416B0B435360436ADB0606D5026817
:100E100093681C490B40816B0B439360436A9B06AC
:100E200006D50268936818490B40C16B0B43936069
:100E3000436A5B060BD50268536814490B40016C8A
:100E40000B43536080235B03026C9A420AD0436ACF
:100E50001B0606D5026853680D490B40816C0B4395
:100E600053607047026853680A490B40416C0B435A
:100E70005360ECE7FFFFFDFFFFFFFEFFFFFFFBFFFF
:100E8000FF7FFFFFFFEFFFFFFFDFFFFFFFFFEFFF32
:100E9000FFFFF7FFFFFF9FFFF8B5CE46474680B53F
:100EA00006000D0017009946089B98463368DC69D8
:100EB0002C40641B63425C41BC4253D14346013326
:100EC000F4D0FFF7F1F94B46C01A40452CD8434601
:100ED000002B29D033681A685207E7D5DA69120562
:100EE000E4D5802212011A62EFF31080012282F30E
:100EF000108831680B681E4C23400B6080F310880B
:100F0000EFF3108082F3108831688B6893438B6015
:100F100080F310882023B367F3677F32B3505433D4
:100F20000022F25403201EE0EFF31080012282F32E
:100F3000108831680B680E4C23400B6080F31088DA
:100F4000EFF3108082F3108831688B6893438B60D5
:100F500080F310882023B367F36754330022F254E0
:100F6000032000E00020C0BCB946B046F8BDC04632
:100F70005FFEFFFF30B583B0040080230022C25023
:100F8000FFF792F905002268126813070DD4236851
:100F90001B685B0716D42023A367E367002323663F
:100FA0007422A354002003B030BD80210C4B009369
:100FB0000300002289032000FFF76EFF0028E6D01F
:100FC0000320F0E78021064B00932B000022C90389
:100FD0002000FFF761FF0028DDD00320E3E7C046D3
:100FE000FFFFFF0110B5041E2ED0836F002B21D010
:100FF0002423A3672268136801218B431360200018
:10100000FFF72EFE012814D0636A002B18D1226846
:1010100053680E490B4053602268936808218B4344
:1010200093602268136807390B4313602000FFF7B1
:10103000A1FF10BD74330022C25400F0A3F8D7E71B
:101040002000FFF7B9FEE2E70120F2E7FFF7FFFF1C
:1010500082B0064A51698020800201435161536980
:1010600003400193019B02B07047C046001002404C
:1010700072B6FEE700B595B03022002108A800F056
:1010800001F91022002104A800F0FCF81022002130
:10109000684600F0F7F80223089301220B920F3202
:1010A0000C921093C0235B03129308A8FFF714FA65
:1010B000002817D107230493053B059300230693CB
:1010C0000793012104A8FFF78DFC00280CD1012310
:1010D0000093002302936846FFF734FD002805D1F2
:1010E00015B000BDFFF7C4FFFFF7C2FFFFF7C0FF59
:1010F00010B5FFF7BDF8FFF7BDFFFFF7A9FF00F040
:1011000023F8FEE782B00A4B9969012211439961E5
:1011100099690A400092009ADA69802149050A43D8
:10112000DA61DB690B400193019B02B07047C04656
:1011300000100240FEE7FEE77047704710B5FFF76A
:10114000A7F810BD7047000010B50C480C4B0360A9
:1011500096239B01436000238360C36003610C22DC
:1011600042618361C36103624362FFF73BFF002872
:1011700000D110BDFFF77CFFFBE7C0465C040020F8
:101180000038014010B588B004001422002103A8E3
:1011900000F078F82268134B9A4201D008B010BDD5
:1011A000114B99698020C001014399619A690240FD
:1011B0000192019A5A69802189020A435A615B6946
:1011C0000B400293029B0C2303930A3B04930133CD
:1011D0000693023B0793902003A9C005FFF7B6F8DA
:1011E000DCE7C04600380140001002400D4885464B
:1011F0000D480E490E4A002302E0D458C45004336F
:10120000C4188C42F9D30B4A0B4C002301E0136045
:101210000432A242FBD3FFF795FF00F011F8FFF76D
:1012200067FFFEE700100020000000203C040020C3
:10123000981400083C040020E4040020FEE70000AD
:1012400070B50C4D0C4E761BB61005D0002408CDA1
:1012500001349847A642FAD100F0EAF8074D084E4B
:10126000761BB61005D0002408CD01349847A6425D
:10127000FAD170BD8C1400088C1400088C1400087E
:1012800094140008F0B50500830749D0541E002AC5
:1012900045D003000326CAB202E00135013C3ED32B
:1012A00001332A703342F8D1032C30D9FF220A408F
:1012B000150215432A0415430F2C34D92700103F7B
:1012C0003F093E01B4461E001A0010366644156000
:1012D00055609560D5601032B242F8D101373F01B8
:1012E000DB190F270C22274022403C00002A0ED099
:1012F0003E1FB608B400A4461A001C1D644420C258
:10130000A242FCD103240136B6009B193C40002CBC
:1013100005D0C9B21C19197001339C42FBD1F0BD34
:1013200003001400C0E72700E2E7C046034B10B5F6
:10133000002B02D0024800F005F810BD00000000AC
:101340005513000810B5010000230022002000F012
:1013500019F810BD70B5074D074C641BA41005D0DB
:10136000013CA300EB589847002CF9D100F066F837
:1013700070BDC04694140008981400087047C04619
:101380007047C046F0B5D6464F464646C0B5264FD4
:1013900082B006003868924698468946FFF7EEFF0D
:1013A000224B1B680193A423019A5B00D558002DA2
:1013B0002ED06C681F2C30DC002E0FD1631C6B60AC
:1013C0004B460234A40038686351FFF7D9FF002070
:1013D00002B0E0BCBA46B146A846F0BD88225146EC
:1013E0002800A300EB189950873AA2408930FF30BB
:1013F0000168114301608421404649005850022E83
:10140000DCD12B008D33FF3319680A431A60D5E70E
:1014100015004D35FF35D550CBE73868FFF7B0FFE5
:1014200001204042D4E7C046380400208814000858
:10143000F8B5C046F8BC08BC9E467047F8B5C04633
:08144000F8BC08BC9E46704791
:1014480002030405060708090A0B0C0D0E0F1010FD
:10145800000000000102030405060708090A0B0C36
:101468000D0E0F100000000000000000000000003A
:101478000102030406070809000000000102030432
:041488001000002030
:08148C002D130008E90000081F
:04149400C10000088B
:10149800010000000400000000127A0000000000B3
:1014A80000000000FC02002064030020CC030020A0
:1014B8000000000000000000000000000000000024
:1014C8000000000000000000000000000000000014
:1014D8000000000000000000000000000000000004
:1014E80000000000000000000000000000000000F4
:1014F80000000000000000000000000000000000E4
:1015080000000000000000000000000000000000D3
:1015180000000000000000000000000000000000C3
:1015280000000000000000000000000000000000B3
:1015380000000000000000000000000000000000A3
:101548000000000000000000010000000000000092
:101558000E33CDAB34126DE6ECDE05000B00000057
:101568000000000000000000000000000000000073
:101578000000000000000000000000000000000063
:101588000000000000000000000000000000000053
:101598000000000000000000000000000000000043
:0C18C8000000000000000000E004002010
:04000005080011EDF1
:00000001FF
